:020000040000FA
:10000000860187018801031383168113FF30860060
:1000100000308700FF308800831267200030A30083
:100020007620081A2028230824020319A30025306B
:10003000230784000008462087007620A30A1128A1
:1000400025302307840023082402031D34280830A8
:10005000240203193228A40A253023078400003023
:10006000800034280030A3001F300605462087009A
:10007000081C3F28081A34280030A3001128253016
:10008000230784001F3006058000342882070834C7
:1000900077341F344D343E344F3447345D34373475
:1000A0003034383402340D34023416347D3467343D
:1000B000023445345B340F343D34023402340234AC
:1000C0003B346E34023402340234023402340730DA
:1000D000A5001230A6000130A7000E30A800143091
:1000E000A9001330AA000630A40008000430A200C2
:1000F000FB30A100C830A00000000000A00B7C284D
:0A010000A10B7A28A20B7828080052
:02400E00393F38
:00000001FF
