:020000040000FA
:10000000860187018801031383168113FF30860060
:1000100000308700FF308800831266200030A30084
:100020007520081A2028230824020319A30025306C
:10003000230784000008452087007520A30A1128A3
:10004000FF30870025302307840023082402031D86
:1000500036280830240203193428A40AA3082507E7
:1000600084000030800036280030A3001F300605D1
:1000700045208700081C4128081A36280030A300B4
:1000800011281F300605800036288207083477348F
:100090001F344D343E344F3447345D3437343034BC
:1000A000383402340D34023416347D34673402346B
:1000B00045345B340F343D340234023402343B3473
:1000C0006E34023402340234023402340730A500A4
:1000D0001230A6000130A7000E30A8001430A9008D
:1000E0001330AA000630A40008000430A200FB3040
:1000F000A100C830A00000000000A00B7B28A10BCD
:080100007928A20B7728080002
:02400E00393F38
:00000001FF
