:020000040000FA
:10000000860187018801031383168113003086005F
:1000100000308700FF308800831243200030A300A7
:100020004E20081E1F2825302307840000082220A8
:100030008700A30A230824020319A3004E20FF30DF
:10004000870011288207083477341F344D343E343A
:100050004F3447340234023402340234023402345E
:1000600002340234023402340234023402340234E0
:1000700002340234023402340234023402340234D0
:100080000234023402340330A5000130A6000630E9
:10009000A7000530A8000430A4000800C830A00064
:1000A000C830A1006430A200A00B5428A10B542832
:0600B000A20B5428080019
:02400E00393F38
:00000001FF
