:020000040000FA
:020000001928BD
:08000800F2000308F3000B19DC
:100010000C288B18112814280B11F00AFF308100CE
:1000200014288B10F10A142873088300F20E720E44
:1000300009006F206F206F206F206F206400860101
:1000400087018801A20103138316811310308500F4
:10005000073086000F3087000F3088008115811629
:10006000011601138B160B168B170110811001114D
:100070008312FF308100F001F101640086185828D6
:1000800006194D287108A200220EF0398700700869
:10009000A200220EF03988006D287008A200220EFE
:1000A000F03987007108A200220EF03988006D280F
:1000B000061963287008A200220EF0398700700824
:1000C000F03988006D287108A200220EF0398700EF
:1000D0007108A200F03988006D286F203D28053096
:1000E000A100F230A0000000000000000000A00B02
:1000F0007328A10B71280000000000000000000020
:020100000800F5
:02400E003D3F34
:00000001FF
